{
  "_format": "hh-sol-artifact-1",
  "contractName": "LNR_RESOLVER_V3",
  "sourceName": "contracts/LNR_RESOLVER_V3.sol",
  "abi": [
    {
      "inputs": [],
      "stateMutability": "nonpayable",
      "type": "constructor"
    },
    {
      "anonymous": false,
      "inputs": [
        {
          "indexed": false,
          "internalType": "address",
          "name": "previousAdmin",
          "type": "address"
        },
        {
          "indexed": false,
          "internalType": "address",
          "name": "newAdmin",
          "type": "address"
        }
      ],
      "name": "AdminChanged",
      "type": "event"
    },
    {
      "anonymous": false,
      "inputs": [
        {
          "indexed": true,
          "internalType": "address",
          "name": "beacon",
          "type": "address"
        }
      ],
      "name": "BeaconUpgraded",
      "type": "event"
    },
    {
      "anonymous": false,
      "inputs": [
        {
          "indexed": false,
          "internalType": "uint8",
          "name": "version",
          "type": "uint8"
        }
      ],
      "name": "Initialized",
      "type": "event"
    },
    {
      "anonymous": false,
      "inputs": [
        {
          "indexed": true,
          "internalType": "bytes32",
          "name": "name",
          "type": "bytes32"
        },
        {
          "indexed": true,
          "internalType": "address",
          "name": "controller",
          "type": "address"
        }
      ],
      "name": "NewController",
      "type": "event"
    },
    {
      "anonymous": false,
      "inputs": [
        {
          "indexed": true,
          "internalType": "bytes32",
          "name": "name",
          "type": "bytes32"
        },
        {
          "indexed": true,
          "internalType": "address",
          "name": "primary",
          "type": "address"
        }
      ],
      "name": "NewPrimary",
      "type": "event"
    },
    {
      "anonymous": false,
      "inputs": [
        {
          "indexed": true,
          "internalType": "address",
          "name": "previousOwner",
          "type": "address"
        },
        {
          "indexed": true,
          "internalType": "address",
          "name": "newOwner",
          "type": "address"
        }
      ],
      "name": "OwnershipTransferred",
      "type": "event"
    },
    {
      "anonymous": false,
      "inputs": [
        {
          "indexed": true,
          "internalType": "bytes32",
          "name": "name",
          "type": "bytes32"
        },
        {
          "indexed": true,
          "internalType": "string",
          "name": "key",
          "type": "string"
        },
        {
          "indexed": true,
          "internalType": "string",
          "name": "value",
          "type": "string"
        }
      ],
      "name": "SetTextRecord",
      "type": "event"
    },
    {
      "anonymous": false,
      "inputs": [
        {
          "indexed": true,
          "internalType": "address",
          "name": "implementation",
          "type": "address"
        }
      ],
      "name": "Upgraded",
      "type": "event"
    },
    {
      "inputs": [
        {
          "internalType": "bytes32",
          "name": "",
          "type": "bytes32"
        }
      ],
      "name": "controller",
      "outputs": [
        {
          "internalType": "address",
          "name": "",
          "type": "address"
        }
      ],
      "stateMutability": "view",
      "type": "function"
    },
    {
      "inputs": [
        {
          "internalType": "bytes32",
          "name": "_name",
          "type": "bytes32"
        }
      ],
      "name": "getResolveAddress",
      "outputs": [
        {
          "internalType": "address",
          "name": "",
          "type": "address"
        }
      ],
      "stateMutability": "view",
      "type": "function"
    },
    {
      "inputs": [
        {
          "internalType": "bytes32",
          "name": "_name",
          "type": "bytes32"
        },
        {
          "internalType": "string",
          "name": "_key",
          "type": "string"
        }
      ],
      "name": "getTextRecord",
      "outputs": [
        {
          "internalType": "string",
          "name": "",
          "type": "string"
        }
      ],
      "stateMutability": "view",
      "type": "function"
    },
    {
      "inputs": [],
      "name": "initialize",
      "outputs": [],
      "stateMutability": "nonpayable",
      "type": "function"
    },
    {
      "inputs": [],
      "name": "lnrAddress",
      "outputs": [
        {
          "internalType": "address",
          "name": "",
          "type": "address"
        }
      ],
      "stateMutability": "view",
      "type": "function"
    },
    {
      "inputs": [],
      "name": "owner",
      "outputs": [
        {
          "internalType": "address",
          "name": "",
          "type": "address"
        }
      ],
      "stateMutability": "view",
      "type": "function"
    },
    {
      "inputs": [
        {
          "internalType": "address",
          "name": "",
          "type": "address"
        }
      ],
      "name": "primary",
      "outputs": [
        {
          "internalType": "bytes32",
          "name": "",
          "type": "bytes32"
        }
      ],
      "stateMutability": "view",
      "type": "function"
    },
    {
      "inputs": [],
      "name": "proxiableUUID",
      "outputs": [
        {
          "internalType": "bytes32",
          "name": "",
          "type": "bytes32"
        }
      ],
      "stateMutability": "view",
      "type": "function"
    },
    {
      "inputs": [],
      "name": "renounceOwnership",
      "outputs": [],
      "stateMutability": "nonpayable",
      "type": "function"
    },
    {
      "inputs": [
        {
          "internalType": "string",
          "name": "_domain",
          "type": "string"
        }
      ],
      "name": "resolve",
      "outputs": [
        {
          "internalType": "address",
          "name": "",
          "type": "address"
        }
      ],
      "stateMutability": "view",
      "type": "function"
    },
    {
      "inputs": [
        {
          "internalType": "bytes32",
          "name": "",
          "type": "bytes32"
        }
      ],
      "name": "resolveAddress",
      "outputs": [
        {
          "internalType": "address",
          "name": "",
          "type": "address"
        }
      ],
      "stateMutability": "view",
      "type": "function"
    },
    {
      "inputs": [
        {
          "internalType": "bytes32",
          "name": "_name",
          "type": "bytes32"
        },
        {
          "internalType": "address",
          "name": "_controller",
          "type": "address"
        }
      ],
      "name": "setController",
      "outputs": [],
      "stateMutability": "nonpayable",
      "type": "function"
    },
    {
      "inputs": [
        {
          "internalType": "bytes32",
          "name": "_name",
          "type": "bytes32"
        }
      ],
      "name": "setPrimary",
      "outputs": [],
      "stateMutability": "nonpayable",
      "type": "function"
    },
    {
      "inputs": [
        {
          "internalType": "bytes32",
          "name": "_name",
          "type": "bytes32"
        },
        {
          "internalType": "string",
          "name": "_key",
          "type": "string"
        },
        {
          "internalType": "string",
          "name": "_value",
          "type": "string"
        }
      ],
      "name": "setTextRecord",
      "outputs": [],
      "stateMutability": "nonpayable",
      "type": "function"
    },
    {
      "inputs": [
        {
          "internalType": "address",
          "name": "newOwner",
          "type": "address"
        }
      ],
      "name": "transferOwnership",
      "outputs": [],
      "stateMutability": "nonpayable",
      "type": "function"
    },
    {
      "inputs": [
        {
          "internalType": "bytes32",
          "name": "_name",
          "type": "bytes32"
        }
      ],
      "name": "unsetController",
      "outputs": [],
      "stateMutability": "nonpayable",
      "type": "function"
    },
    {
      "inputs": [],
      "name": "unsetPrimary",
      "outputs": [],
      "stateMutability": "nonpayable",
      "type": "function"
    },
    {
      "inputs": [
        {
          "internalType": "bytes32",
          "name": "_name",
          "type": "bytes32"
        },
        {
          "internalType": "string",
          "name": "_key",
          "type": "string"
        }
      ],
      "name": "unsetTextRecord",
      "outputs": [],
      "stateMutability": "nonpayable",
      "type": "function"
    },
    {
      "inputs": [
        {
          "internalType": "address",
          "name": "newImplementation",
          "type": "address"
        }
      ],
      "name": "upgradeTo",
      "outputs": [],
      "stateMutability": "nonpayable",
      "type": "function"
    },
    {
      "inputs": [
        {
          "internalType": "address",
          "name": "newImplementation",
          "type": "address"
        },
        {
          "internalType": "bytes",
          "name": "data",
          "type": "bytes"
        }
      ],
      "name": "upgradeToAndCall",
      "outputs": [],
      "stateMutability": "payable",
      "type": "function"
    },
    {
      "inputs": [
        {
          "internalType": "bytes32",
          "name": "",
          "type": "bytes32"
        }
      ],
      "name": "userTextRecords",
      "outputs": [
        {
          "internalType": "bool",
          "name": "initialized",
          "type": "bool"
        }
      ],
      "stateMutability": "view",
      "type": "function"
    },
    {
      "inputs": [
        {
          "internalType": "bytes32",
          "name": "_name",
          "type": "bytes32"
        },
        {
          "internalType": "address",
          "name": "_addr",
          "type": "address"
        }
      ],
      "name": "verifyIsNameOwner",
      "outputs": [
        {
          "internalType": "bool",
          "name": "",
          "type": "bool"
        }
      ],
      "stateMutability": "view",
      "type": "function"
    }
  ],
  "bytecode": "0x60a06040523073ffffffffffffffffffffffffffffffffffffffff1660809073ffffffffffffffffffffffffffffffffffffffff168152503480156200004457600080fd5b50620000556200005b60201b60201c565b62000206565b600060019054906101000a900460ff1615620000ae576040517f08c379a0000000000000000000000000000000000000000000000000000000008152600401620000a590620001a9565b60405180910390fd5b60ff801660008054906101000a900460ff1660ff161015620001205760ff6000806101000a81548160ff021916908360ff1602179055507f7f26b83ff96e1f2b6a682f133852f6798a09c465da95921460cefb384740249860ff604051620001179190620001e9565b60405180910390a15b565b600082825260208201905092915050565b7f496e697469616c697a61626c653a20636f6e747261637420697320696e69746960008201527f616c697a696e6700000000000000000000000000000000000000000000000000602082015250565b60006200019160278362000122565b91506200019e8262000133565b604082019050919050565b60006020820190508181036000830152620001c48162000182565b9050919050565b600060ff82169050919050565b620001e381620001cb565b82525050565b6000602082019050620002006000830184620001d8565b92915050565b6080516134e16200023e600039600081816107a30152818161083101528181610cd101528181610d5f0152610e0f01526134e16000f3fe6080604052600436106101355760003560e01c80638129fc1c116100ab578063d31569051161006f578063d3156905146103f1578063dbd4e0211461041a578063dd5fe1c714610457578063ef5d79d714610494578063f2fde38b146104bd578063f6e5059f146104e657610135565b80638129fc1c146103465780638da5cb5b1461035d578063ad98b5e214610388578063afa34a25146103b1578063b2852341146103da57610135565b806352d1902d116100fd57806352d1902d1461022257806356c8a13a1461024d57806357af522c1461028a578063637da6a3146102b55780636a14920a146102f2578063715018a61461032f57610135565b80631772308a1461013a578063218facd1146101775780633659cfe6146101a0578063461a4478146101c95780634f1ef28614610206575b600080fd5b34801561014657600080fd5b50610161600480360381019061015c9190612131565b610523565b60405161016e9190612177565b60405180910390f35b34801561018357600080fd5b5061019e600480360381019061019991906121be565b61053b565b005b3480156101ac57600080fd5b506101c760048036038101906101c29190612131565b6107a1565b005b3480156101d557600080fd5b506101f060048036038101906101eb9190612250565b610929565b6040516101fd91906122ac565b60405180910390f35b610220600480360381019061021b9190612408565b610ccf565b005b34801561022e57600080fd5b50610237610e0b565b6040516102449190612177565b60405180910390f35b34801561025957600080fd5b50610274600480360381019061026f91906121be565b610ec4565b60405161028191906122ac565b60405180910390f35b34801561029657600080fd5b5061029f610f01565b6040516102ac91906122ac565b60405180910390f35b3480156102c157600080fd5b506102dc60048036038101906102d79190612464565b610f19565b6040516102e99190612543565b60405180910390f35b3480156102fe57600080fd5b50610319600480360381019061031491906121be565b610fe1565b60405161032691906122ac565b60405180910390f35b34801561033b57600080fd5b50610344611014565b005b34801561035257600080fd5b5061035b611028565b005b34801561036957600080fd5b5061037261116e565b60405161037f91906122ac565b60405180910390f35b34801561039457600080fd5b506103af60048036038101906103aa9190612565565b611198565b005b3480156103bd57600080fd5b506103d860048036038101906103d391906121be565b6112de565b005b3480156103e657600080fd5b506103ef6112ec565b005b3480156103fd57600080fd5b50610418600480360381019061041391906125fa565b611442565b005b34801561042657600080fd5b50610441600480360381019061043c91906121be565b61162c565b60405161044e91906122ac565b60405180910390f35b34801561046357600080fd5b5061047e600480360381019061047991906125fa565b61165f565b60405161048b9190612655565b60405180910390f35b3480156104a057600080fd5b506104bb60048036038101906104b69190612464565b61179f565b005b3480156104c957600080fd5b506104e460048036038101906104df9190612131565b6118d7565b005b3480156104f257600080fd5b5061050d600480360381019061050891906121be565b61195a565b60405161051a9190612655565b60405180910390f35b60fd6020528060005260406000206000915090505481565b600260c95403610580576040517f08c379a0000000000000000000000000000000000000000000000000000000008152600401610577906126bc565b60405180910390fd5b600260c981905550610592813361165f565b6105d1576040517f08c379a00000000000000000000000000000000000000000000000000000000081526004016105c890612728565b60405180910390fd5b60fb600060fd60003373ffffffffffffffffffffffffffffffffffffffff1673ffffffffffffffffffffffffffffffffffffffff16815260200190815260200160002054815260200190815260200160002060006101000a81549073ffffffffffffffffffffffffffffffffffffffff021916905560fd600060fb600084815260200190815260200160002060009054906101000a900473ffffffffffffffffffffffffffffffffffffffff1673ffffffffffffffffffffffffffffffffffffffff1673ffffffffffffffffffffffffffffffffffffffff168152602001908152602001600020600090558060fd60003373ffffffffffffffffffffffffffffffffffffffff1673ffffffffffffffffffffffffffffffffffffffff168152602001908152602001600020819055503360fb600083815260200190815260200160002060006101000a81548173ffffffffffffffffffffffffffffffffffffffff021916908373ffffffffffffffffffffffffffffffffffffffff1602179055503373ffffffffffffffffffffffffffffffffffffffff16817fa3534940584b909fd42bc51d6972b5e95d9eb7c8f0cd4201869b2f808bc4457f60405160405180910390a3600160c98190555050565b7f000000000000000000000000000000000000000000000000000000000000000073ffffffffffffffffffffffffffffffffffffffff163073ffffffffffffffffffffffffffffffffffffffff160361082f576040517f08c379a0000000000000000000000000000000000000000000000000000000008152600401610826906127ba565b60405180910390fd5b7f000000000000000000000000000000000000000000000000000000000000000073ffffffffffffffffffffffffffffffffffffffff1661086e611985565b73ffffffffffffffffffffffffffffffffffffffff16146108c4576040517f08c379a00000000000000000000000000000000000000000000000000000000081526004016108bb9061284c565b60405180910390fd5b6108cd816119dc565b61092681600067ffffffffffffffff8111156108ec576108eb6122dd565b5b6040519080825280601f01601f19166020018201604052801561091e5781602001600182028036833780820191505090505b5060006119e7565b50565b60008083838080601f016020809104026020016040519081016040528093929190818152602001838380828437600081840152601f19601f82011690508083019250505050505050905060248151106109b7576040517f08c379a00000000000000000000000000000000000000000000000000000000081526004016109ae906128b8565b60405180910390fd5b606760f81b81600183516109cb9190612911565b815181106109dc576109db612945565b5b602001015160f81c60f81b7effffffffffffffffffffffffffffffffffffffffffffffffffffffffffffff1916148015610a655750606f60f81b8160028351610a259190612911565b81518110610a3657610a35612945565b5b602001015160f81c60f81b7effffffffffffffffffffffffffffffffffffffffffffffffffffffffffffff1916145b8015610ac05750602e60f81b8160038351610a809190612911565b81518110610a9157610a90612945565b5b602001015160f81c60f81b7effffffffffffffffffffffffffffffffffffffffffffffffffffffffffffff1916145b610aff576040517f08c379a0000000000000000000000000000000000000000000000000000000008152600401610af6906129c0565b60405180910390fd5b8060018251610b0e9190612911565b81518110610b1f57610b1e612945565b5b6020010160007effffffffffffffffffffffffffffffffffffffffffffffffffffffffffffff19168152508060028251610b599190612911565b81518110610b6a57610b69612945565b5b6020010160007effffffffffffffffffffffffffffffffffffffffffffffffffffffffffffff19168152508060038251610ba49190612911565b81518110610bb557610bb4612945565b5b6020010160007effffffffffffffffffffffffffffffffffffffffffffffffffffffffffffff191681525060005b60038251610bf19190612911565b811015610c8857602e60f81b828281518110610c1057610c0f612945565b5b602001015160f81c60f81b7effffffffffffffffffffffffffffffffffffffffffffffffffffffffffffff191603610c7d576040517f08c379a0000000000000000000000000000000000000000000000000000000008152600401610c7490612a2c565b60405180910390fd5b806001019050610be3565b60fb600083610c9690612a89565b815260200190815260200160002060009054906101000a900473ffffffffffffffffffffffffffffffffffffffff169250505092915050565b7f000000000000000000000000000000000000000000000000000000000000000073ffffffffffffffffffffffffffffffffffffffff163073ffffffffffffffffffffffffffffffffffffffff1603610d5d576040517f08c379a0000000000000000000000000000000000000000000000000000000008152600401610d54906127ba565b60405180910390fd5b7f000000000000000000000000000000000000000000000000000000000000000073ffffffffffffffffffffffffffffffffffffffff16610d9c611985565b73ffffffffffffffffffffffffffffffffffffffff1614610df2576040517f08c379a0000000000000000000000000000000000000000000000000000000008152600401610de99061284c565b60405180910390fd5b610dfb826119dc565b610e07828260016119e7565b5050565b60007f000000000000000000000000000000000000000000000000000000000000000073ffffffffffffffffffffffffffffffffffffffff163073ffffffffffffffffffffffffffffffffffffffff1614610e9b576040517f08c379a0000000000000000000000000000000000000000000000000000000008152600401610e9290612b62565b60405180910390fd5b7f360894a13ba1a3210667c828492db98dca3e2076cc3735a920a3ca505d382bbc60001b905090565b600060fb600083815260200190815260200160002060009054906101000a900473ffffffffffffffffffffffffffffffffffffffff169050919050565b735564886ca2c518d1964e5fcea4f423b41db9f56181565b606060fe60008581526020019081526020016000206001018383604051610f41929190612bb2565b90815260200160405180910390208054610f5a90612bfa565b80601f0160208091040260200160405190810160405280929190818152602001828054610f8690612bfa565b8015610fd35780601f10610fa857610100808354040283529160200191610fd3565b820191906000526020600020905b815481529060010190602001808311610fb657829003601f168201915b505050505090509392505050565b60fb6020528060005260406000206000915054906101000a900473ffffffffffffffffffffffffffffffffffffffff1681565b61101c611b55565b6110266000611bd3565b565b60008060019054906101000a900460ff161590508080156110595750600160008054906101000a900460ff1660ff16105b80611086575061106830611c99565b1580156110855750600160008054906101000a900460ff1660ff16145b5b6110c5576040517f08c379a00000000000000000000000000000000000000000000000000000000081526004016110bc90612c9d565b60405180910390fd5b60016000806101000a81548160ff021916908360ff1602179055508015611102576001600060016101000a81548160ff0219169083151502179055505b61110a611cbc565b611112611d15565b801561116b5760008060016101000a81548160ff0219169083151502179055507f7f26b83ff96e1f2b6a682f133852f6798a09c465da95921460cefb384740249860016040516111629190612d0f565b60405180910390a15b50565b6000603360009054906101000a900473ffffffffffffffffffffffffffffffffffffffff16905090565b600260c954036111dd576040517f08c379a00000000000000000000000000000000000000000000000000000000081526004016111d4906126bc565b60405180910390fd5b600260c9819055506111ef853361165f565b61122e576040517f08c379a000000000000000000000000000000000000000000000000000000000815260040161122590612728565b60405180910390fd5b818160fe60008881526020019081526020016000206001018686604051611256929190612bb2565b90815260200160405180910390209182611271929190612eca565b508181604051611282929190612bb2565b6040518091039020848460405161129a929190612bb2565b6040518091039020867f2d0e50011f4a7d11d9b4915eb1bf1f6d8f5c1d87b58c6f8ebfefd2ede291745560405160405180910390a4600160c9819055505050505050565b6112e9816000611442565b50565b600260c95403611331576040517f08c379a0000000000000000000000000000000000000000000000000000000008152600401611328906126bc565b60405180910390fd5b600260c98190555060fb600060fd60003373ffffffffffffffffffffffffffffffffffffffff1673ffffffffffffffffffffffffffffffffffffffff16815260200190815260200160002054815260200190815260200160002060006101000a81549073ffffffffffffffffffffffffffffffffffffffff021916905560fd60003373ffffffffffffffffffffffffffffffffffffffff1673ffffffffffffffffffffffffffffffffffffffff168152602001908152602001600020600090553373ffffffffffffffffffffffffffffffffffffffff166000801b7fa3534940584b909fd42bc51d6972b5e95d9eb7c8f0cd4201869b2f808bc4457f60405160405180910390a3600160c981905550565b600260c95403611487576040517f08c379a000000000000000000000000000000000000000000000000000000000815260040161147e906126bc565b60405180910390fd5b600260c9819055503373ffffffffffffffffffffffffffffffffffffffff16735564886ca2c518d1964e5fcea4f423b41db9f56173ffffffffffffffffffffffffffffffffffffffff166302571be3846040518263ffffffff1660e01b81526004016114f39190612177565b602060405180830381865afa158015611510573d6000803e3d6000fd5b505050506040513d601f19601f820116820180604052508101906115349190612faf565b73ffffffffffffffffffffffffffffffffffffffff161461158a576040517f08c379a000000000000000000000000000000000000000000000000000000000815260040161158190612728565b60405180910390fd5b8060fc600084815260200190815260200160002060006101000a81548173ffffffffffffffffffffffffffffffffffffffff021916908373ffffffffffffffffffffffffffffffffffffffff1602179055508073ffffffffffffffffffffffffffffffffffffffff16827fe5108446a6097aab57fd36f346a515a78fddefa87d81662d44e0d7a463f9209560405160405180910390a3600160c9819055505050565b60fc6020528060005260406000206000915054906101000a900473ffffffffffffffffffffffffffffffffffffffff1681565b60008173ffffffffffffffffffffffffffffffffffffffff1660fc600085815260200190815260200160002060009054906101000a900473ffffffffffffffffffffffffffffffffffffffff1673ffffffffffffffffffffffffffffffffffffffff16148061178657508173ffffffffffffffffffffffffffffffffffffffff16735564886ca2c518d1964e5fcea4f423b41db9f56173ffffffffffffffffffffffffffffffffffffffff166302571be3856040518263ffffffff1660e01b815260040161172d9190612177565b602060405180830381865afa15801561174a573d6000803e3d6000fd5b505050506040513d601f19601f8201168201806040525081019061176e9190612faf565b73ffffffffffffffffffffffffffffffffffffffff16145b156117945760019050611799565b600090505b92915050565b600260c954036117e4576040517f08c379a00000000000000000000000000000000000000000000000000000000081526004016117db906126bc565b60405180910390fd5b600260c9819055506117f6833361165f565b611835576040517f08c379a000000000000000000000000000000000000000000000000000000000815260040161182c90612728565b60405180910390fd5b60fe6000848152602001908152602001600020600101828260405161185b929190612bb2565b908152602001604051809103902060006118759190612062565b60405161188190613002565b604051809103902060405161189590613002565b6040518091039020847f2d0e50011f4a7d11d9b4915eb1bf1f6d8f5c1d87b58c6f8ebfefd2ede291745560405160405180910390a4600160c981905550505050565b6118df611b55565b600073ffffffffffffffffffffffffffffffffffffffff168173ffffffffffffffffffffffffffffffffffffffff160361194e576040517f08c379a000000000000000000000000000000000000000000000000000000000815260040161194590613089565b60405180910390fd5b61195781611bd3565b50565b60fe6020528060005260406000206000915090508060000160009054906101000a900460ff16905081565b60006119b37f360894a13ba1a3210667c828492db98dca3e2076cc3735a920a3ca505d382bbc60001b611d66565b60000160009054906101000a900473ffffffffffffffffffffffffffffffffffffffff16905090565b6119e4611b55565b50565b611a137f4910fdfa16fed3260ed0e7147f7cc6da11a60208b5b9406d12a635614ffd914360001b611d70565b60000160009054906101000a900460ff1615611a3757611a3283611d7a565b611b50565b8273ffffffffffffffffffffffffffffffffffffffff166352d1902d6040518163ffffffff1660e01b8152600401602060405180830381865afa925050508015611a9f57506040513d601f19601f82011682018060405250810190611a9c91906130be565b60015b611ade576040517f08c379a0000000000000000000000000000000000000000000000000000000008152600401611ad59061315d565b60405180910390fd5b7f360894a13ba1a3210667c828492db98dca3e2076cc3735a920a3ca505d382bbc60001b8114611b43576040517f08c379a0000000000000000000000000000000000000000000000000000000008152600401611b3a906131ef565b60405180910390fd5b50611b4f838383611e33565b5b505050565b611b5d611e5f565b73ffffffffffffffffffffffffffffffffffffffff16611b7b61116e565b73ffffffffffffffffffffffffffffffffffffffff1614611bd1576040517f08c379a0000000000000000000000000000000000000000000000000000000008152600401611bc89061325b565b60405180910390fd5b565b6000603360009054906101000a900473ffffffffffffffffffffffffffffffffffffffff16905081603360006101000a81548173ffffffffffffffffffffffffffffffffffffffff021916908373ffffffffffffffffffffffffffffffffffffffff1602179055508173ffffffffffffffffffffffffffffffffffffffff168173ffffffffffffffffffffffffffffffffffffffff167f8be0079c531659141344cd1fd0a4f28419497f9722a3daafe3b4186f6b6457e060405160405180910390a35050565b6000808273ffffffffffffffffffffffffffffffffffffffff163b119050919050565b600060019054906101000a900460ff16611d0b576040517f08c379a0000000000000000000000000000000000000000000000000000000008152600401611d02906132ed565b60405180910390fd5b611d13611e67565b565b600060019054906101000a900460ff16611d64576040517f08c379a0000000000000000000000000000000000000000000000000000000008152600401611d5b906132ed565b60405180910390fd5b565b6000819050919050565b6000819050919050565b611d8381611c99565b611dc2576040517f08c379a0000000000000000000000000000000000000000000000000000000008152600401611db99061337f565b60405180910390fd5b80611def7f360894a13ba1a3210667c828492db98dca3e2076cc3735a920a3ca505d382bbc60001b611d66565b60000160006101000a81548173ffffffffffffffffffffffffffffffffffffffff021916908373ffffffffffffffffffffffffffffffffffffffff16021790555050565b611e3c83611ec8565b600082511180611e495750805b15611e5a57611e588383611f17565b505b505050565b600033905090565b600060019054906101000a900460ff16611eb6576040517f08c379a0000000000000000000000000000000000000000000000000000000008152600401611ead906132ed565b60405180910390fd5b611ec6611ec1611e5f565b611bd3565b565b611ed181611d7a565b8073ffffffffffffffffffffffffffffffffffffffff167fbc7cd75a20ee27fd9adebab32041f755214dbc6bffa90cc0225b39da2e5c2d3b60405160405180910390a250565b6060611f2283611c99565b611f61576040517f08c379a0000000000000000000000000000000000000000000000000000000008152600401611f5890613411565b60405180910390fd5b6000808473ffffffffffffffffffffffffffffffffffffffff1684604051611f89919061346d565b600060405180830381855af49150503d8060008114611fc4576040519150601f19603f3d011682016040523d82523d6000602084013e611fc9565b606091505b5091509150611ff1828260405180606001604052806027815260200161348560279139611ffb565b9250505092915050565b6060831561200b5782905061205b565b60008351111561201e5782518084602001fd5b816040517f08c379a00000000000000000000000000000000000000000000000000000000081526004016120529190612543565b60405180910390fd5b9392505050565b50805461206e90612bfa565b6000825580601f10612080575061209f565b601f01602090049060005260206000209081019061209e91906120a2565b5b50565b5b808211156120bb5760008160009055506001016120a3565b5090565b6000604051905090565b600080fd5b600080fd5b600073ffffffffffffffffffffffffffffffffffffffff82169050919050565b60006120fe826120d3565b9050919050565b61210e816120f3565b811461211957600080fd5b50565b60008135905061212b81612105565b92915050565b600060208284031215612147576121466120c9565b5b60006121558482850161211c565b91505092915050565b6000819050919050565b6121718161215e565b82525050565b600060208201905061218c6000830184612168565b92915050565b61219b8161215e565b81146121a657600080fd5b50565b6000813590506121b881612192565b92915050565b6000602082840312156121d4576121d36120c9565b5b60006121e2848285016121a9565b91505092915050565b600080fd5b600080fd5b600080fd5b60008083601f8401126122105761220f6121eb565b5b8235905067ffffffffffffffff81111561222d5761222c6121f0565b5b602083019150836001820283011115612249576122486121f5565b5b9250929050565b60008060208385031215612267576122666120c9565b5b600083013567ffffffffffffffff811115612285576122846120ce565b5b612291858286016121fa565b92509250509250929050565b6122a6816120f3565b82525050565b60006020820190506122c1600083018461229d565b92915050565b600080fd5b6000601f19601f8301169050919050565b7f4e487b7100000000000000000000000000000000000000000000000000000000600052604160045260246000fd5b612315826122cc565b810181811067ffffffffffffffff82111715612334576123336122dd565b5b80604052505050565b60006123476120bf565b9050612353828261230c565b919050565b600067ffffffffffffffff821115612373576123726122dd565b5b61237c826122cc565b9050602081019050919050565b82818337600083830152505050565b60006123ab6123a684612358565b61233d565b9050828152602081018484840111156123c7576123c66122c7565b5b6123d2848285612389565b509392505050565b600082601f8301126123ef576123ee6121eb565b5b81356123ff848260208601612398565b91505092915050565b6000806040838503121561241f5761241e6120c9565b5b600061242d8582860161211c565b925050602083013567ffffffffffffffff81111561244e5761244d6120ce565b5b61245a858286016123da565b9150509250929050565b60008060006040848603121561247d5761247c6120c9565b5b600061248b868287016121a9565b935050602084013567ffffffffffffffff8111156124ac576124ab6120ce565b5b6124b8868287016121fa565b92509250509250925092565b600081519050919050565b600082825260208201905092915050565b60005b838110156124fe5780820151818401526020810190506124e3565b60008484015250505050565b6000612515826124c4565b61251f81856124cf565b935061252f8185602086016124e0565b612538816122cc565b840191505092915050565b6000602082019050818103600083015261255d818461250a565b905092915050565b600080600080600060608688031215612581576125806120c9565b5b600061258f888289016121a9565b955050602086013567ffffffffffffffff8111156125b0576125af6120ce565b5b6125bc888289016121fa565b9450945050604086013567ffffffffffffffff8111156125df576125de6120ce565b5b6125eb888289016121fa565b92509250509295509295909350565b60008060408385031215612611576126106120c9565b5b600061261f858286016121a9565b92505060206126308582860161211c565b9150509250929050565b60008115159050919050565b61264f8161263a565b82525050565b600060208201905061266a6000830184612646565b92915050565b7f5265656e7472616e637947756172643a207265656e7472616e742063616c6c00600082015250565b60006126a6601f836124cf565b91506126b182612670565b602082019050919050565b600060208201905081810360008301526126d581612699565b9050919050565b7f4e6f7420796f7572730000000000000000000000000000000000000000000000600082015250565b60006127126009836124cf565b915061271d826126dc565b602082019050919050565b6000602082019050818103600083015261274181612705565b9050919050565b7f46756e6374696f6e206d7573742062652063616c6c6564207468726f7567682060008201527f64656c656761746563616c6c0000000000000000000000000000000000000000602082015250565b60006127a4602c836124cf565b91506127af82612748565b604082019050919050565b600060208201905081810360008301526127d381612797565b9050919050565b7f46756e6374696f6e206d7573742062652063616c6c6564207468726f7567682060008201527f6163746976652070726f78790000000000000000000000000000000000000000602082015250565b6000612836602c836124cf565b9150612841826127da565b604082019050919050565b6000602082019050818103600083015261286581612829565b9050919050565b7f546f6f206c6f6e67000000000000000000000000000000000000000000000000600082015250565b60006128a26008836124cf565b91506128ad8261286c565b602082019050919050565b600060208201905081810360008301526128d181612895565b9050919050565b6000819050919050565b7f4e487b7100000000000000000000000000000000000000000000000000000000600052601160045260246000fd5b600061291c826128d8565b9150612927836128d8565b925082820390508181111561293f5761293e6128e2565b5b92915050565b7f4e487b7100000000000000000000000000000000000000000000000000000000600052603260045260246000fd5b7f696e76616c696420646f6d61696e000000000000000000000000000000000000600082015250565b60006129aa600e836124cf565b91506129b582612974565b602082019050919050565b600060208201905081810360008301526129d98161299d565b9050919050565b7f74686973206973206120737562646f6d61696e00000000000000000000000000600082015250565b6000612a166013836124cf565b9150612a21826129e0565b602082019050919050565b60006020820190508181036000830152612a4581612a09565b9050919050565b600081519050919050565b6000819050602082019050919050565b6000612a73825161215e565b80915050919050565b600082821b905092915050565b6000612a9482612a4c565b82612a9e84612a57565b9050612aa981612a67565b92506020821015612ae957612ae47fffffffffffffffffffffffffffffffffffffffffffffffffffffffffffffffff83602003600802612a7c565b831692505b5050919050565b7f555550535570677261646561626c653a206d757374206e6f742062652063616c60008201527f6c6564207468726f7567682064656c656761746563616c6c0000000000000000602082015250565b6000612b4c6038836124cf565b9150612b5782612af0565b604082019050919050565b60006020820190508181036000830152612b7b81612b3f565b9050919050565b600081905092915050565b6000612b998385612b82565b9350612ba6838584612389565b82840190509392505050565b6000612bbf828486612b8d565b91508190509392505050565b7f4e487b7100000000000000000000000000000000000000000000000000000000600052602260045260246000fd5b60006002820490506001821680612c1257607f821691505b602082108103612c2557612c24612bcb565b5b50919050565b7f496e697469616c697a61626c653a20636f6e747261637420697320616c72656160008201527f647920696e697469616c697a6564000000000000000000000000000000000000602082015250565b6000612c87602e836124cf565b9150612c9282612c2b565b604082019050919050565b60006020820190508181036000830152612cb681612c7a565b9050919050565b6000819050919050565b600060ff82169050919050565b6000819050919050565b6000612cf9612cf4612cef84612cbd565b612cd4565b612cc7565b9050919050565b612d0981612cde565b82525050565b6000602082019050612d246000830184612d00565b92915050565b600082905092915050565b60008190508160005260206000209050919050565b60006020601f8301049050919050565b600060088302612d8a7fffffffffffffffffffffffffffffffffffffffffffffffffffffffffffffffff82612a7c565b612d948683612a7c565b95508019841693508086168417925050509392505050565b6000612dc7612dc2612dbd846128d8565b612cd4565b6128d8565b9050919050565b6000819050919050565b612de183612dac565b612df5612ded82612dce565b848454612d5a565b825550505050565b600090565b612e0a612dfd565b612e15818484612dd8565b505050565b5b81811015612e3957612e2e600082612e02565b600181019050612e1b565b5050565b601f821115612e7e57612e4f81612d35565b612e5884612d4a565b81016020851015612e67578190505b612e7b612e7385612d4a565b830182612e1a565b50505b505050565b600082821c905092915050565b6000612ea160001984600802612e83565b1980831691505092915050565b6000612eba8383612e90565b9150826002028217905092915050565b612ed48383612d2a565b67ffffffffffffffff811115612eed57612eec6122dd565b5b612ef78254612bfa565b612f02828285612e3d565b6000601f831160018114612f315760008415612f1f578287013590505b612f298582612eae565b865550612f91565b601f198416612f3f86612d35565b60005b82811015612f6757848901358255600182019150602085019450602081019050612f42565b86831015612f845784890135612f80601f891682612e90565b8355505b6001600288020188555050505b50505050505050565b600081519050612fa981612105565b92915050565b600060208284031215612fc557612fc46120c9565b5b6000612fd384828501612f9a565b91505092915050565b50565b6000612fec600083612b82565b9150612ff782612fdc565b600082019050919050565b600061300d82612fdf565b9150819050919050565b7f4f776e61626c653a206e6577206f776e657220697320746865207a65726f206160008201527f6464726573730000000000000000000000000000000000000000000000000000602082015250565b60006130736026836124cf565b915061307e82613017565b604082019050919050565b600060208201905081810360008301526130a281613066565b9050919050565b6000815190506130b881612192565b92915050565b6000602082840312156130d4576130d36120c9565b5b60006130e2848285016130a9565b91505092915050565b7f45524331393637557067726164653a206e657720696d706c656d656e7461746960008201527f6f6e206973206e6f742055555053000000000000000000000000000000000000602082015250565b6000613147602e836124cf565b9150613152826130eb565b604082019050919050565b600060208201905081810360008301526131768161313a565b9050919050565b7f45524331393637557067726164653a20756e737570706f727465642070726f7860008201527f6961626c65555549440000000000000000000000000000000000000000000000602082015250565b60006131d96029836124cf565b91506131e48261317d565b604082019050919050565b60006020820190508181036000830152613208816131cc565b9050919050565b7f4f776e61626c653a2063616c6c6572206973206e6f7420746865206f776e6572600082015250565b60006132456020836124cf565b91506132508261320f565b602082019050919050565b6000602082019050818103600083015261327481613238565b9050919050565b7f496e697469616c697a61626c653a20636f6e7472616374206973206e6f74206960008201527f6e697469616c697a696e67000000000000000000000000000000000000000000602082015250565b60006132d7602b836124cf565b91506132e28261327b565b604082019050919050565b60006020820190508181036000830152613306816132ca565b9050919050565b7f455243313936373a206e657720696d706c656d656e746174696f6e206973206e60008201527f6f74206120636f6e747261637400000000000000000000000000000000000000602082015250565b6000613369602d836124cf565b91506133748261330d565b604082019050919050565b600060208201905081810360008301526133988161335c565b9050919050565b7f416464726573733a2064656c65676174652063616c6c20746f206e6f6e2d636f60008201527f6e74726163740000000000000000000000000000000000000000000000000000602082015250565b60006133fb6026836124cf565b91506134068261339f565b604082019050919050565b6000602082019050818103600083015261342a816133ee565b9050919050565b600081905092915050565b600061344782612a4c565b6134518185613431565b93506134618185602086016124e0565b80840191505092915050565b6000613479828461343c565b91508190509291505056fe416464726573733a206c6f772d6c6576656c2064656c65676174652063616c6c206661696c6564a264697066735822122061c940cf09ae5753956cd190d277498d709be57be929ae960dac20ed97e6561c64736f6c63430008120033",
  "linkReferences": {},
  "deployedLinkReferences": {}
}